:020000040000FA
:1000000080312628080014347E1480318B1D092885
:100010000A2812280B1C0D280E2812288731DF27EA
:10002000803124280B1F1528162824282100111C94
:100030001A281B2824282000111C1F2820282428C7
:100040008D319525803124287E10090080312828A3
:10005000803103208031FD00A03084000030850015
:1000600028308D312D2580317E10200080313828B8
:100070008D31882580318F315D27803128302000F7
:10008000A0000D30A1008D3167258031F8302000AF
:10009000A0000630A1008D3143258031F8302000CA
:1000A000A0000630A1008D314C258031F8302000B1
:1000B000A0000630A1008D3155258031F830200098
:1000C000A0000630A1008D315E2580318B170B1703
:1000D0002100191420001A14A101A10A0D308E313B
:1000E0006A2680312100DB01DB0ADC01DC0ADA014F
:1000F0008D31702580312100D6005608D90064006A
:10010000722A02305B02031C86288728B92A013034
:10011000DB02B6282000A101A10A21005C08FF3EF5
:1001200080388E316A268031B92A2000A101A10AC7
:1001300021005C083F3E80388E316A268031B92A22
:100140002000A101A10A21005C08133E80388E31F5
:100150006A268031B92A2000A101A10A21005C0889
:10016000533E80388E316A268031B92A5B08D6002A
:10017000D7015708003A0319BE28B92A5608013A90
:1001800003198A28033A03199528013A0319A0286C
:10019000073A0319AB28B92A04305B020318D128A7
:1001A000D228B92A0130D6005608DB0703292000DF
:1001B000A101A10A21005C08FF3E80388E316A2629
:1001C0008031B92A2000A101A10A21005C083F3E2C
:1001D00080388E316A268031B92A2000A101A10A17
:1001E00021005C08133E80388E316A268031B92A9E
:1001F0002000A101A10A21005C08533E80388E3105
:100200006A268031B92A5B08D600D7015708003A20
:1002100003190B29B92A5608013A0319D728033ABA
:100220000319E228013A0319ED28073A0319F828BF
:10023000B92A1430CE009030CF000130D6005608D5
:10024000DA075A08D700D8015708D0005808D1005B
:100250008D31F02580310A3021005A06031D3129E5
:1002600032293329DA0101302100D6005608DC0793
:10027000B92A14305C0203183E293F29B92A0130FB
:10028000D6005608DC0770292000A101A10A210030
:100290005C08FF3E80388E316A268031B92A200002
:1002A000A101A10A21005C083F3E80388E316A26F8
:1002B0008031B92A2000A101A10A21005C08133E67
:1002C00080388E316A268031B92A2000A101A10A26
:1002D00021005C08533E80388E316A268031B92A6D
:1002E0005B08D600D7015708003A03197829B92AC4
:1002F0005608013A03194429033A03194F29013AD0
:1003000003195A29073A03196529B92A02305C02F0
:10031000031C8B298C29B92A0130DC02BB2920005F
:10032000A101A10A21005C08FF3E80388E316A26B7
:100330008031B92A2000A101A10A21005C083F3EBA
:1003400080388E316A268031B92A2000A101A10AA5
:1003500021005C08133E80388E316A268031B92A2C
:100360002000A101A10A21005C08533E80388E3193
:100370006A268031B92A5B08D600D7015708003AAF
:100380000319C329B92A5608013A03198F29033AD8
:1003900003199A29013A0319A529073A0319B02923
:1003A000B92A2000A101A10A01308E316A268031CC
:1003B0000B302100D6006230890BDC29D60BDC29FA
:1003C00000002100DB01DB0ADC01DC0AB92A200085
:1003D000A10121005908303E8E316A26803133292F
:1003E0002000A10123308E316A268031332920007C
:1003F000A1012A308E316A2680313329DC01DC0AE2
:10040000212A2000A101A10A80308E316A26803184
:10041000B92A2000A101A10AC0308E316A2680319C
:10042000B92A2000A101A10A94308E316A268031B8
:10043000B92A2000A101A10AD4308E316A26803168
:10044000B92A5B08D600D7015708003A0319292AB0
:10045000B92A5608013A0319012A033A0319092A4D
:10046000013A0319112A073A0319192AB92A143033
:10047000D6005608DC005C2A2000A101A10A9330B6
:100480008E316A268031B92A2000A101A10AD33019
:100490008E316A268031B92A2000A101A10AA73035
:1004A0008E316A268031B92A2000A101A10AE730E5
:1004B0008E316A268031B92A5B08D600D7015708E9
:1004C000003A0319642AB92A5608013A03193C2A4A
:1004D000033A0319442A013A03194C2A073A03192B
:1004E000542AB92A21005908D600D7015708003AE2
:1004F00003197B2AB92A5608003A0319E729013A59
:100500000319E729033A0319E729013A0319E729EF
:10051000073A0319E729013A0319E729033A0319AE
:10052000E729013A0319E7290F3A0319E729013AA4
:100530000319E729033A03193929013A03198629CE
:10054000073A03198128013A0319CC28033A031901
:10055000FE29013A0319372A1F3A0319F029013AF3
:100560000319F729033A0319D129013A0319192963
:10057000B92A63007828803126282000CF0040085F
:10058000D4004108D5004208D6004308D7004408EB
:10059000D8004508D9004608DA004708DB00543087
:1005A000860000308700473FC800C81BD82ADA2AD7
:1005B0000130DB2A00302000C900CA014908D200FE
:1005C0004A08D300520853040319E72AE82A062BE5
:1005D000D409D509D609D709D809D909DA09DB0917
:1005E000D40A031D062BD50A031D062BD60A031DAC
:1005F000062BD70A031D062BD80A031D062BD90A82
:10060000031D062BDA0A031D062BDB0A2100A51B9E
:100610000A2B0B2B0F2BFD30A605FF30A705250855
:10062000803A2000C80080304802031D1A2B013098
:100630002100240203181D2B1E2B242B0130200027
:10064000CD000030CE002C2B210025082000CE004C
:10065000210024082000CD00210023082000D10023
:10066000210022082000D00052085304031D392B1A
:100670003A2B3F2B2100261D3E2B3F2B442BFF30D6
:100680002000D007FF30D13D1F302000DC000030BB
:10069000DD002100C701B42BFF302000DC07FF3054
:1006A000DD3D0A30A000A101A201A301A401A50122
:1006B000A601A7015408A8005508A9005608AA00D9
:1006C0005708AB005808AC005908AD005A08AE00F6
:1006D0005B08AF0085313025823120002108B4004D
:1006E0002008B3008E314E26823120003308303E80
:1006F000C8005C08A83E8600870148088100FF30DA
:10070000CD07FF30CE3DFF30D007FF30D13D0A305E
:10071000A000A101A201A301A401A501A601A701B6
:100720005408A8005508A9005608AA005708AB00AD
:100730005808AC005908AD005A08AE005B08AF007D
:1007400084312B24823120002008D4002108D500D8
:100750002208D6002308D7002408D8002508D9008D
:100760002608DA002708DB0020005D08803AC80070
:1007700080304802031DBE2B01305C02031CC12BDC
:10078000C22BEF2B2000540855045604570458047C
:1007900059045A045B04031DCE2BCF2B4C2B4E085F
:1007A000803AC80080304802031DD82B01304D022A
:1007B0000318DB2BDC2B4C2B20005108803AC8009F
:1007C00080304802031DE62B01305002031CE92B48
:1007D000EA2BEF2B2100A618EE2BEF2B4C2B200041
:1007E00052085304031DF52BF62BFB2B2100261D6D
:1007F000FA2BFB2B172CFF302000DC07FF30DD3DF0
:1008000052085304031D052C062C0B2C2B30CB0057
:100810000030CC000F2C2D30CB000030CC004B082A
:10082000C8005C08A83E86008701480881002000B7
:100830005C08A83EC8004808B7005108B900500835
:10084000B8004F088F31A727823120003808C10037
:100850003708C00008002000B201203086000030B8
:100860008700473FB000B01F362C372C592C200092
:10087000A009A109A209A309A409A509A609A70914
:10088000A00A031D562CA10A031D562CA20A031D03
:10089000562CA30A031D562CA40A031D562CA50A88
:1008A000031D562CA60A031D562CA70A2000B201D0
:1008B000B20A2830860000308700473F2000B00091
:1008C000B01F632C642C882C2000A809A909AA0950
:1008D000AB09AC09AD09AE09AF09A80A031D832C09
:1008E000A90A031D832CAA0A031D832CAB0A031D2E
:1008F000832CAC0A031D832CAD0A031D832CAE0A86
:10090000031D832CAF0A01302000B0003008B2066E
:10091000333086000030870008302000B0000030FF
:100920001E00B00B902C2008210422042304240470
:1009300025042604270403199E2C9F2CFB2CB101AF
:10094000B10AAE2CA035A10DA20DA30DA40DA50DCD
:10095000A60DA70D0130B0003008B107A71FB12CBC
:10096000B22CA22CB335B40DB50DB60DB70DB80D24
:10097000B90DBA0D27082F02031DD82C26082E0208
:10098000031DD82C25082D02031DD82C24082C0269
:10099000031DD82C23082B02031DD82C22082A0261
:1009A000031DD82C21082902031DD82C2008280259
:1009B000031CDB2CDC2CED2C2008A8022108A93B11
:1009C0002208AA3B2308AB3B2408AC3B2508AD3BDF
:1009D0002608AE3B2708AF3B3314A736A60CA50C60
:1009E000A40CA30CA20CA10CA00C0130B102031D9D
:1009F000FA2CFB2CB22C32080319FF2C002D1E2DD3
:100A0000B309B409B509B609B709B809B909BA09EA
:100A1000B30A031D1E2DB40A031D1E2DB50A031DA6
:100A20001E2DB60A031D1E2DB70A031D1E2DB80A62
:100A3000031D1E2DB90A031D1E2DBA0A20003308FE
:100A4000A0003408A1003508A2003608A30037082A
:100A5000A4003808A5003908A6003A08A700080035
:100A60002000B2012830860000308700473FB000E8
:100A7000B01F3B2D3C2D5E2D2000A809A909AA0915
:100A8000AB09AC09AD09AE09AF09A80A031D5B2D7E
:100A9000A90A031D5B2DAA0A031D5B2DAB0A031DCA
:100AA0005B2DAC0A031D5B2DAD0A031D5B2DAE0A49
:100AB000031D5B2DAF0A2000B201B20A2030860070
:100AC00000308700473F2000B000B01F682D692D1F
:100AD000882D2000A009A109A209A309A409A5093C
:100AE000A609A709A00A031D882DA10A031D882DA8
:100AF000A20A031D882DA30A031D882DA40A031D25
:100B0000882DA50A031D882DA60A031D882DA70A76
:100B100020002008210422042304240425042604A0
:100B200027040319942D952DE82DB101B10AA42DA8
:100B3000A035A10DA20DA30DA40DA50DA60DA70D09
:100B40000130B0003008B107A71FA72DA82D982DA0
:100B500027082F02031DC62D26082E02031DC62DB1
:100B600025082D02031DC62D24082C02031DC62DA9
:100B700023082B02031DC62D22082A02031DC62DA1
:100B800021082902031DC62D20082802031CC92D97
:100B9000CA2DDA2D2008A8022108A93B2208AA3B69
:100BA0002308AB3B2408AC3B2508AD3B2608AE3BF5
:100BB0002708AF3BA736A60CA50CA40CA30CA20CCF
:100BC000A10CA00C0130B102031DE72DE82DA82DCA
:100BD00032080319EC2DED2D0B2EA809A909AA093D
:100BE000AB09AC09AD09AE09AF09A80A031D0B2E6C
:100BF000A90A031D0B2EAA0A031D0B2EAB0A031D07
:100C00000B2EAC0A031D0B2EAD0A031D0B2EAE0AD4
:100C1000031D0B2EAF0A20002808A0002908A10000
:100C20002A08A2002B08A3002C08A4002D08A50068
:100C30002E08A6002F08A70008002000ED005E087F
:100C400086008701403FE000413FE10060088400EA
:100C5000610885001200253A031D2F2E302ED42E58
:100C60005E08860087010130810741310318810A3F
:100C70002100A201A301A601A701FF30A400FF30BB
:100C8000A50020005E0886008701403FE000413F4C
:100C9000E10060088400610885001200643A0319CD
:100CA000522E532E642E5E0886008701403FE000DE
:100CB000413FE10060088400610885001200693A44
:100CC000031D632E642E9F2E5E088600870101306F
:100CD000810741310318810A5F08860087010108F6
:100CE0008400850102308107003FE000013FE10000
:100CF0006008E5006108E600890D893B8909E70085
:100D0000E800E900EA00EB00EC006508C0006608B6
:100D1000C1006708C2006808C3006908C4006A0807
:100D2000C5006B08C6006C08C7006D088231BD2283
:100D3000863120004108DF004008DE00F72E5E0803
:100D400086008701403FE000413FE10060088400E9
:100D5000610885001200253A031DAF2EB02EC92E62
:100D60005E08860087010130810741310318810A3E
:100D70002530A7000030A8006D08E0006008A90039
:100D80008F311C27863101302000DE000030DF006B
:100D9000F72E5E0886008701013081074131031874
:100DA000810ADE01DF01F72E5E0886008701403FE1
:100DB000E000413FE1006008840061088500000810
:100DC000E200E3016208A7006308A8006D08E400E0
:100DD0006408A9008F311C27863120005E08860038
:100DE00087010130810741310318810AC32E0800B1
:100DF000FC017C088E31E9268631003A0319012F67
:100E0000022F672F22000E128E120E138E130F1256
:100E1000FB01142F0E162D2F8E162D2F0E172D2F92
:100E20008E172D2F0F162D2F7B08F400F501750856
:100E3000003A03191C2F2D2F7408003A03190A2FAA
:100E4000013A03190C2F033A03190E2F013A031923
:100E5000102F073A0319122F2D2F7C088E31E92607
:100E60008631003A0319352F362F522F7B08F400B4
:100E7000F501F435F50DF435F50D0030F600903040
:100E8000F70074087607F8007508773DF9007C08CC
:100E90007807840079080318790A85000008FA00A9
:100EA0007A08FD0022000E128E120E138E130F12FE
:100EB0000130F4007408FB0705307B02031C612F2E
:100EC000622F142F0E168E160E178E170F16013066
:100ED000F4007408FC0704307C02031C702F712F8F
:100EE000F92E08002200900110308F008C018D0136
:100EF000F0308E000730210090003E308C00FF3033
:100F00008D000F308E00E0308F00E03023008F0026
:100F10008E013F308D00073090003E308C00240061
:100F20008F0190018D018C018E0121009717250002
:100F300090018C018D018E018F01FF3026008C0005
:100F4000FF308D00FF308E00FF308F0007309000A3
:100F50003F3027008C00F0308D00FF308E00FF30D6
:100F60008F00191099101911991118109810181153
:100F70009811171497141715971527302000A00003
:100F80000D30A1008D314325873126302000A0008F
:100F90000D30A1008D314C25873125302000A00077
:100FA0000D30A1008D315525873124302000A0005F
:100FB0000D30A1008D315E2587318B15080027008B
:100FC000191CE32FE42FE72F8D31A325873127004C
:100FD000991CEB2FEC2FEF2F8D31B2258731270095
:100FE000191DF32FF42FF72F8D31C12587312700DD
:100FF000991DFB2FFC2FFF2F8D31D0258731080045
:101A48000800080008000800080014302100990068
:101A58000800640080010131890B2E2D00347A3092
:101A680021009B0080309C009A019D010800200005
:101A7800A600A10126088E316A268D3108002000B3
:101A880021082100E400200020082100E3000800CC
:101A9800200021082100E200200020082100E100A8
:101AA8000800200021082100E00020002008210073
:101AB800DF000800200021082100DE0020002008A7
:101AC8002100DD000800200021082100E600200098
:101AD80020082100E50008007D082000A00020085B
:101AE800A1001430A0002008FD00210808002100F2
:101AF800650866040319812D822D872D66088A00E2
:101B080065080A008D310800873172278D318D31C3
:101B180033258D318D3129258D318E3133268D3107
:101B280008002000111021006808F1006708F00083
:101B38008D31DF258D318D317B258D3108002100D8
:101B4800630864040319A92DAA2DAF2D64088A001F
:101B580063080A008D312700191008002100610868
:101B680062040319B82DB92DBE2D62088A006108D8
:101B78000A008D3127009910080021005F086004D1
:101B88000319C72DC82DCD2D60088A005F080A00EB
:101B98008D3127001911080021005D085E04031922
:101BA800D62DD72DDC2D5E088A005D080A008D3100
:101BB80027009911080020001A1DE32DE42DEB2DB4
:101BC8001A1071089900700898001A14EF2D7108FE
:101BD8009900700898000800D0302100D2005208FF
:101BE800D5004F08C9004E08C800D530D2005208A9
:101BF800CA0000308E31BA268D3108002000A000BE
:101C08000F08F03922008F0020000F08200622005C
:101C18008F000C178530890B0F2E000022000C1343
:101C28008530890B152E000008002000A400240828
:101C3800A2002208A300242E0130A2002208A40733
:101C48002408860087010108031D2B2E2C2E202E28
:101C580023082402A000A101A01BA1030800200062
:101C68009B0186309900E83098001110190821006E
:101C7800E800200018082100E700111402302000B5
:101C8800A0000030A1008D3167258E31C5302000BD
:101C98009A00080020003408803AB50080303502E8
:101CA800031D582E0130330203185B2E5C2E692E5B
:101CB80020003309B5003409B600B50A0319B60A7D
:101CC8003508B3003608B400692E08002000A500C6
:101CD8002108031D702E712E732E22008C172000F0
:101CE8002508A2000430A236890B772E2208A3000B
:101CF8002308A4000F30A2002208A40524088E316E
:101D080002268E310F302000A2002208A5052508E2
:101D18008E3102268E3122008C1308002000B60076
:101D2800B401B501AA2E3308B000B1013008A700EC
:101D38003108A8002F08B2003208A9008F311C27EB
:101D48008E3101302000B4070030B53D3408360725
:101D5800B0003008860087010108B1003108B300DF
:101D68003308031DB82EB92E972E08002100CB008A
:101D78004908CD004808CC00A001A101DB2ECC30D9
:101D88002000EE006E08DE0021004A082000EF0067
:101D98006F08DF0021004B0886311D268E31200098
:101DA8005E082100A00720005F082100A13D4C0823
:101DB80084004D0885001200031DE32EE42EC32E77
:101DC8002108C9002008C8000800F200F301042F08
:101DD800003020000E180130F3001A2F00302000C8
:101DE8008E180130F3001A2F003020000E19013030
:101DF800F3001A2F003020008E190130F3001A2F3B
:101E08007208F000F1017108003A03190C2F1A2F1B
:101E18007008003A0319EC2E013A0319F22E033A1E
:101E28000319F82E013A0319FE2E1A2F7308080019
:101E3800200029080319212F222F272F2908031DE5
:101E4800262F272F2C2F27088D313B258F315C2FEC
:101E58002908033E86008701160001040319352F5F
:101E6800362F532F2908033E86008701403FAA00DA
:101E7800413FAB00290A86008701403FAC00413F43
:101E8800AD002D08803AAE002B08803A2E02031DC3
:101E98004F2F2A082C020318522F532F5C2F200093
:101EA800290A860087010130810741310318810A18
:101EB800080005302000A7000F30A600F130890B7C
:101EC800632FA60B632FA70B632F03308E310226D7
:101ED8008F310B302000A6006230890B712FA60BC2
:101EE800712F000002308E3102268F312000A101AF
:101EF800A10A28308E316A268F312000A101A10A5B
:101F080008308E316A268F312000A101A10A0130E4
:101F18008E316A268F310B302000A6006230890B83
:101F2800932FA60B932F00002000A101A10A0630D1
:101F38008E316A268F312000A101A10A0C308E3122
:101F48006A268F3108002000BF002100261CAD2F13
:101F5800AE2FB72F20003F08BA003A08AF00370865
:101F68008E3192268F312000B91BBB2FBC2FC12F79
:101F78003908BE003808BD00C32FBD01BE01BB0132
:101F8800BC01D72F20302000A7000030A8003F0850
:101F9800BA003A08A9008F311C278F310130200080
:101FA800BB070030BC3D3C08803ABA003E08803A86
:101FB8003A02031DE12F3D083B02031CE42FE52FE5
:101FC800C62F21002618E92FEA2FF32F20003F08FB
:101FD800BA003A08AF0037088E3192268F312000B8
:101FE80037088E3119268F3120003D082007B700A9
:101FF8003E08213DB80008000E340F341034113467
:102008000134023403340C340434053406340D34FA
:1020180007340834093412340B3400340A341334C6
:062028002534643400348D
:020000040001F9
:04000E00ECFFFFFE06
:00000001FF
